{
  "_format": "hh-sol-artifact-1",
  "contractName": "MyToken",
  "sourceName": "contracts/MyToken.sol",
  "abi": [
    {
      "inputs": [
        {
          "internalType": "string",
          "name": "_name",
          "type": "string"
        },
        {
          "internalType": "string",
          "name": "_symbol",
          "type": "string"
        },
        {
          "internalType": "uint8",
          "name": "_decimals",
          "type": "uint8"
        },
        {
          "internalType": "uint256",
          "name": "_amount",
          "type": "uint256"
        }
      ],
      "stateMutability": "nonpayable",
      "type": "constructor"
    },
    {
      "anonymous": false,
      "inputs": [
        {
          "indexed": true,
          "internalType": "address",
          "name": "spender",
          "type": "address"
        },
        {
          "indexed": false,
          "internalType": "uint256",
          "name": "amount",
          "type": "uint256"
        }
      ],
      "name": "Approval",
      "type": "event"
    },
    {
      "anonymous": false,
      "inputs": [
        {
          "indexed": true,
          "internalType": "address",
          "name": "from",
          "type": "address"
        },
        {
          "indexed": true,
          "internalType": "address",
          "name": "to",
          "type": "address"
        },
        {
          "indexed": false,
          "internalType": "uint256",
          "name": "value",
          "type": "uint256"
        }
      ],
      "name": "Transfer",
      "type": "event"
    },
    {
      "inputs": [
        {
          "internalType": "address",
          "name": "",
          "type": "address"
        },
        {
          "internalType": "address",
          "name": "",
          "type": "address"
        }
      ],
      "name": "allowance",
      "outputs": [
        {
          "internalType": "uint256",
          "name": "",
          "type": "uint256"
        }
      ],
      "stateMutability": "view",
      "type": "function"
    },
    {
      "inputs": [
        {
          "internalType": "address",
          "name": "spender",
          "type": "address"
        },
        {
          "internalType": "uint256",
          "name": "amount",
          "type": "uint256"
        }
      ],
      "name": "approve",
      "outputs": [],
      "stateMutability": "nonpayable",
      "type": "function"
    },
    {
      "inputs": [
        {
          "internalType": "address",
          "name": "",
          "type": "address"
        }
      ],
      "name": "balanceOf",
      "outputs": [
        {
          "internalType": "uint256",
          "name": "",
          "type": "uint256"
        }
      ],
      "stateMutability": "view",
      "type": "function"
    },
    {
      "inputs": [],
      "name": "decimals",
      "outputs": [
        {
          "internalType": "uint8",
          "name": "",
          "type": "uint8"
        }
      ],
      "stateMutability": "view",
      "type": "function"
    },
    {
      "inputs": [
        {
          "internalType": "uint256",
          "name": "amount",
          "type": "uint256"
        }
      ],
      "name": "faucet",
      "outputs": [],
      "stateMutability": "nonpayable",
      "type": "function"
    },
    {
      "inputs": [],
      "name": "manager",
      "outputs": [
        {
          "internalType": "address",
          "name": "",
          "type": "address"
        }
      ],
      "stateMutability": "view",
      "type": "function"
    },
    {
      "inputs": [
        {
          "internalType": "uint256",
          "name": "amount",
          "type": "uint256"
        },
        {
          "internalType": "address",
          "name": "to",
          "type": "address"
        }
      ],
      "name": "mint",
      "outputs": [],
      "stateMutability": "nonpayable",
      "type": "function"
    },
    {
      "inputs": [],
      "name": "name",
      "outputs": [
        {
          "internalType": "string",
          "name": "",
          "type": "string"
        }
      ],
      "stateMutability": "view",
      "type": "function"
    },
    {
      "inputs": [],
      "name": "owner",
      "outputs": [
        {
          "internalType": "address",
          "name": "",
          "type": "address"
        }
      ],
      "stateMutability": "view",
      "type": "function"
    },
    {
      "inputs": [
        {
          "internalType": "address",
          "name": "_manager",
          "type": "address"
        }
      ],
      "name": "setManager",
      "outputs": [],
      "stateMutability": "nonpayable",
      "type": "function"
    },
    {
      "inputs": [],
      "name": "symbol",
      "outputs": [
        {
          "internalType": "string",
          "name": "",
          "type": "string"
        }
      ],
      "stateMutability": "view",
      "type": "function"
    },
    {
      "inputs": [],
      "name": "totalSupply",
      "outputs": [
        {
          "internalType": "uint256",
          "name": "",
          "type": "uint256"
        }
      ],
      "stateMutability": "view",
      "type": "function"
    },
    {
      "inputs": [
        {
          "internalType": "uint256",
          "name": "amount",
          "type": "uint256"
        },
        {
          "internalType": "address",
          "name": "to",
          "type": "address"
        }
      ],
      "name": "transfer",
      "outputs": [],
      "stateMutability": "nonpayable",
      "type": "function"
    },
    {
      "inputs": [
        {
          "internalType": "address",
          "name": "from",
          "type": "address"
        },
        {
          "internalType": "address",
          "name": "to",
          "type": "address"
        },
        {
          "internalType": "uint256",
          "name": "amount",
          "type": "uint256"
        }
      ],
      "name": "transferFrom",
      "outputs": [],
      "stateMutability": "nonpayable",
      "type": "function"
    }
  ],
  "bytecode": "0x60806040523480156200001157600080fd5b5060405162001d6238038062001d62833981810160405281019062000037919062000462565b3333816000806101000a81548173ffffffffffffffffffffffffffffffffffffffff021916908373ffffffffffffffffffffffffffffffffffffffff16021790555080600160006101000a81548173ffffffffffffffffffffffffffffffffffffffff021916908373ffffffffffffffffffffffffffffffffffffffff16021790555050508360029081620000cd919062000753565b508260039081620000df919062000753565b5081600460006101000a81548160ff021916908360ff1602179055506200013a600460009054906101000a900460ff1660ff16600a620001209190620009bd565b826200012d919062000a0e565b336200014460201b60201c565b5050505062000ac2565b8160055462000154919062000a59565b60058190555081600660008373ffffffffffffffffffffffffffffffffffffffff1673ffffffffffffffffffffffffffffffffffffffff16815260200190815260200160002054620001a7919062000a59565b600660008373ffffffffffffffffffffffffffffffffffffffff1673ffffffffffffffffffffffffffffffffffffffff168152602001908152602001600020819055508073ffffffffffffffffffffffffffffffffffffffff16600073ffffffffffffffffffffffffffffffffffffffff167fddf252ad1be2c89b69c2b068fc378daa952ba7f163c4a11628f55a4df523b3ef846040516200024a919062000aa5565b60405180910390a35050565b6000604051905090565b600080fd5b600080fd5b600080fd5b600080fd5b6000601f19601f8301169050919050565b7f4e487b7100000000000000000000000000000000000000000000000000000000600052604160045260246000fd5b620002bf8262000274565b810181811067ffffffffffffffff82111715620002e157620002e062000285565b5b80604052505050565b6000620002f662000256565b9050620003048282620002b4565b919050565b600067ffffffffffffffff82111562000327576200032662000285565b5b620003328262000274565b9050602081019050919050565b60005b838110156200035f57808201518184015260208101905062000342565b60008484015250505050565b6000620003826200037c8462000309565b620002ea565b905082815260208101848484011115620003a157620003a06200026f565b5b620003ae8482856200033f565b509392505050565b600082601f830112620003ce57620003cd6200026a565b5b8151620003e08482602086016200036b565b91505092915050565b600060ff82169050919050565b6200040181620003e9565b81146200040d57600080fd5b50565b6000815190506200042181620003f6565b92915050565b6000819050919050565b6200043c8162000427565b81146200044857600080fd5b50565b6000815190506200045c8162000431565b92915050565b600080600080608085870312156200047f576200047e62000260565b5b600085015167ffffffffffffffff811115620004a0576200049f62000265565b5b620004ae87828801620003b6565b945050602085015167ffffffffffffffff811115620004d257620004d162000265565b5b620004e087828801620003b6565b9350506040620004f38782880162000410565b925050606062000506878288016200044b565b91505092959194509250565b600081519050919050565b7f4e487b7100000000000000000000000000000000000000000000000000000000600052602260045260246000fd5b600060028204905060018216806200056557607f821691505b6020821081036200057b576200057a6200051d565b5b50919050565b60008190508160005260206000209050919050565b60006020601f8301049050919050565b600082821b905092915050565b600060088302620005e57fffffffffffffffffffffffffffffffffffffffffffffffffffffffffffffffff82620005a6565b620005f18683620005a6565b95508019841693508086168417925050509392505050565b6000819050919050565b6000620006346200062e620006288462000427565b62000609565b62000427565b9050919050565b6000819050919050565b620006508362000613565b620006686200065f826200063b565b848454620005b3565b825550505050565b600090565b6200067f62000670565b6200068c81848462000645565b505050565b5b81811015620006b457620006a860008262000675565b60018101905062000692565b5050565b601f8211156200070357620006cd8162000581565b620006d88462000596565b81016020851015620006e8578190505b62000700620006f78562000596565b83018262000691565b50505b505050565b600082821c905092915050565b6000620007286000198460080262000708565b1980831691505092915050565b600062000743838362000715565b9150826002028217905092915050565b6200075e8262000512565b67ffffffffffffffff8111156200077a576200077962000285565b5b6200078682546200054c565b62000793828285620006b8565b600060209050601f831160018114620007cb5760008415620007b6578287015190505b620007c2858262000735565b86555062000832565b601f198416620007db8662000581565b60005b828110156200080557848901518255600182019150602085019450602081019050620007de565b8683101562000825578489015162000821601f89168262000715565b8355505b6001600288020188555050505b505050505050565b7f4e487b7100000000000000000000000000000000000000000000000000000000600052601160045260246000fd5b60008160011c9050919050565b6000808291508390505b6001851115620008c857808604811115620008a0576200089f6200083a565b5b6001851615620008b05780820291505b8081029050620008c08562000869565b945062000880565b94509492505050565b600082620008e35760019050620009b6565b81620008f35760009050620009b6565b81600181146200090c576002811462000917576200094d565b6001915050620009b6565b60ff8411156200092c576200092b6200083a565b5b8360020a9150848211156200094657620009456200083a565b5b50620009b6565b5060208310610133831016604e8410600b8410161715620009875782820a9050838111156200098157620009806200083a565b5b620009b6565b62000996848484600162000876565b92509050818404811115620009b057620009af6200083a565b5b81810290505b9392505050565b6000620009ca8262000427565b9150620009d78362000427565b925062000a067fffffffffffffffffffffffffffffffffffffffffffffffffffffffffffffffff8484620008d1565b905092915050565b600062000a1b8262000427565b915062000a288362000427565b925082820262000a388162000427565b9150828204841483151762000a525762000a516200083a565b5b5092915050565b600062000a668262000427565b915062000a738362000427565b925082820190508082111562000a8e5762000a8d6200083a565b5b92915050565b62000a9f8162000427565b82525050565b600060208201905062000abc600083018462000a94565b92915050565b6112908062000ad26000396000f3fe608060405234801561001057600080fd5b50600436106100ea5760003560e01c806370a082311161008c57806395d89b411161006657806395d89b4114610225578063b7760c8f14610243578063d0ebdbe71461025f578063dd62ed3e1461027b576100ea565b806370a08231146101bb5780638da5cb5b146101eb57806394bf804d14610209576100ea565b806323b872dd116100c857806323b872dd14610147578063313ce56714610163578063481c6a7514610181578063579158971461019f576100ea565b806306fdde03146100ef578063095ea7b31461010d57806318160ddd14610129575b600080fd5b6100f76102ab565b6040516101049190610cda565b60405180910390f35b61012760048036038101906101229190610d95565b610339565b005b61013161040c565b60405161013e9190610de4565b60405180910390f35b610161600480360381019061015c9190610dff565b610412565b005b61016b610702565b6040516101789190610e6e565b60405180910390f35b610189610715565b6040516101969190610e98565b60405180910390f35b6101b960048036038101906101b49190610eb3565b61073b565b005b6101d560048036038101906101d09190610ee0565b610748565b6040516101e29190610de4565b60405180910390f35b6101f3610760565b6040516102009190610e98565b60405180910390f35b610223600480360381019061021e9190610f0d565b610784565b005b61022d610822565b60405161023a9190610cda565b60405180910390f35b61025d60048036038101906102589190610f0d565b6108b0565b005b61027960048036038101906102749190610ee0565b610a47565b005b61029560048036038101906102909190610f4d565b610b19565b6040516102a29190610de4565b60405180910390f35b600280546102b890610fbc565b80601f01602080910402602001604051908101604052809291908181526020018280546102e490610fbc565b80156103315780601f1061030657610100808354040283529160200191610331565b820191906000526020600020905b81548152906001019060200180831161031457829003601f168201915b505050505081565b80600760003373ffffffffffffffffffffffffffffffffffffffff1673ffffffffffffffffffffffffffffffffffffffff16815260200190815260200160002060008473ffffffffffffffffffffffffffffffffffffffff1673ffffffffffffffffffffffffffffffffffffffff168152602001908152602001600020819055508173ffffffffffffffffffffffffffffffffffffffff167f1e4109814b4fb1210f81ef6540a9bf7e5834ff79536859d16d6398f0e417c44f826040516104009190610de4565b60405180910390a25050565b60055481565b600033905081600760008673ffffffffffffffffffffffffffffffffffffffff1673ffffffffffffffffffffffffffffffffffffffff16815260200190815260200160002060008373ffffffffffffffffffffffffffffffffffffffff1673ffffffffffffffffffffffffffffffffffffffff1681526020019081526020016000205410156104d6576040517f08c379a00000000000000000000000000000000000000000000000000000000081526004016104cd90611039565b60405180910390fd5b81600660008673ffffffffffffffffffffffffffffffffffffffff1673ffffffffffffffffffffffffffffffffffffffff168152602001908152602001600020541015610558576040517f08c379a000000000000000000000000000000000000000000000000000000000815260040161054f906110a5565b60405180910390fd5b81600760008673ffffffffffffffffffffffffffffffffffffffff1673ffffffffffffffffffffffffffffffffffffffff16815260200190815260200160002060008373ffffffffffffffffffffffffffffffffffffffff1673ffffffffffffffffffffffffffffffffffffffff16815260200190815260200160002060008282546105e491906110f4565b9250508190555081600660008673ffffffffffffffffffffffffffffffffffffffff1673ffffffffffffffffffffffffffffffffffffffff168152602001908152602001600020600082825461063a91906110f4565b9250508190555081600660008573ffffffffffffffffffffffffffffffffffffffff1673ffffffffffffffffffffffffffffffffffffffff16815260200190815260200160002060008282546106909190611128565b925050819055508273ffffffffffffffffffffffffffffffffffffffff168473ffffffffffffffffffffffffffffffffffffffff167fddf252ad1be2c89b69c2b068fc378daa952ba7f163c4a11628f55a4df523b3ef846040516106f49190610de4565b60405180910390a350505050565b600460009054906101000a900460ff1681565b600160009054906101000a900473ffffffffffffffffffffffffffffffffffffffff1681565b6107458133610b3e565b50565b60066020528060005260406000206000915090505481565b60008054906101000a900473ffffffffffffffffffffffffffffffffffffffff1681565b600160009054906101000a900473ffffffffffffffffffffffffffffffffffffffff1673ffffffffffffffffffffffffffffffffffffffff163373ffffffffffffffffffffffffffffffffffffffff1614610814576040517f08c379a000000000000000000000000000000000000000000000000000000000815260040161080b906111ce565b60405180910390fd5b61081e8282610b3e565b5050565b6003805461082f90610fbc565b80601f016020809104026020016040519081016040528092919081815260200182805461085b90610fbc565b80156108a85780601f1061087d576101008083540402835291602001916108a8565b820191906000526020600020905b81548152906001019060200180831161088b57829003601f168201915b505050505081565b81600660003373ffffffffffffffffffffffffffffffffffffffff1673ffffffffffffffffffffffffffffffffffffffff168152602001908152602001600020541015610932576040517f08c379a0000000000000000000000000000000000000000000000000000000008152600401610929906110a5565b60405180910390fd5b81600660003373ffffffffffffffffffffffffffffffffffffffff1673ffffffffffffffffffffffffffffffffffffffff168152602001908152602001600020600082825461098191906110f4565b9250508190555081600660008373ffffffffffffffffffffffffffffffffffffffff1673ffffffffffffffffffffffffffffffffffffffff16815260200190815260200160002060008282546109d79190611128565b925050819055508073ffffffffffffffffffffffffffffffffffffffff163373ffffffffffffffffffffffffffffffffffffffff167fddf252ad1be2c89b69c2b068fc378daa952ba7f163c4a11628f55a4df523b3ef84604051610a3b9190610de4565b60405180910390a35050565b60008054906101000a900473ffffffffffffffffffffffffffffffffffffffff1673ffffffffffffffffffffffffffffffffffffffff163373ffffffffffffffffffffffffffffffffffffffff1614610ad5576040517f08c379a0000000000000000000000000000000000000000000000000000000008152600401610acc9061123a565b60405180910390fd5b80600160006101000a81548173ffffffffffffffffffffffffffffffffffffffff021916908373ffffffffffffffffffffffffffffffffffffffff16021790555050565b6007602052816000526040600020602052806000526040600020600091509150505481565b81600554610b4c9190611128565b60058190555081600660008373ffffffffffffffffffffffffffffffffffffffff1673ffffffffffffffffffffffffffffffffffffffff16815260200190815260200160002054610b9d9190611128565b600660008373ffffffffffffffffffffffffffffffffffffffff1673ffffffffffffffffffffffffffffffffffffffff168152602001908152602001600020819055508073ffffffffffffffffffffffffffffffffffffffff16600073ffffffffffffffffffffffffffffffffffffffff167fddf252ad1be2c89b69c2b068fc378daa952ba7f163c4a11628f55a4df523b3ef84604051610c3e9190610de4565b60405180910390a35050565b600081519050919050565b600082825260208201905092915050565b60005b83811015610c84578082015181840152602081019050610c69565b60008484015250505050565b6000601f19601f8301169050919050565b6000610cac82610c4a565b610cb68185610c55565b9350610cc6818560208601610c66565b610ccf81610c90565b840191505092915050565b60006020820190508181036000830152610cf48184610ca1565b905092915050565b600080fd5b600073ffffffffffffffffffffffffffffffffffffffff82169050919050565b6000610d2c82610d01565b9050919050565b610d3c81610d21565b8114610d4757600080fd5b50565b600081359050610d5981610d33565b92915050565b6000819050919050565b610d7281610d5f565b8114610d7d57600080fd5b50565b600081359050610d8f81610d69565b92915050565b60008060408385031215610dac57610dab610cfc565b5b6000610dba85828601610d4a565b9250506020610dcb85828601610d80565b9150509250929050565b610dde81610d5f565b82525050565b6000602082019050610df96000830184610dd5565b92915050565b600080600060608486031215610e1857610e17610cfc565b5b6000610e2686828701610d4a565b9350506020610e3786828701610d4a565b9250506040610e4886828701610d80565b9150509250925092565b600060ff82169050919050565b610e6881610e52565b82525050565b6000602082019050610e836000830184610e5f565b92915050565b610e9281610d21565b82525050565b6000602082019050610ead6000830184610e89565b92915050565b600060208284031215610ec957610ec8610cfc565b5b6000610ed784828501610d80565b91505092915050565b600060208284031215610ef657610ef5610cfc565b5b6000610f0484828501610d4a565b91505092915050565b60008060408385031215610f2457610f23610cfc565b5b6000610f3285828601610d80565b9250506020610f4385828601610d4a565b9150509250929050565b60008060408385031215610f6457610f63610cfc565b5b6000610f7285828601610d4a565b9250506020610f8385828601610d4a565b9150509250929050565b7f4e487b7100000000000000000000000000000000000000000000000000000000600052602260045260246000fd5b60006002820490506001821680610fd457607f821691505b602082108103610fe757610fe6610f8d565b5b50919050565b7f696e73756666696369656e7420616c6c6f77616e636500000000000000000000600082015250565b6000611023601683610c55565b915061102e82610fed565b602082019050919050565b6000602082019050818103600083015261105281611016565b9050919050565b7f696e73756666696369656e742062616c616e6365000000000000000000000000600082015250565b600061108f601483610c55565b915061109a82611059565b602082019050919050565b600060208201905081810360008301526110be81611082565b9050919050565b7f4e487b7100000000000000000000000000000000000000000000000000000000600052601160045260246000fd5b60006110ff82610d5f565b915061110a83610d5f565b9250828203905081811115611122576111216110c5565b5b92915050565b600061113382610d5f565b915061113e83610d5f565b9250828201905080821115611156576111556110c5565b5b92915050565b7f596f7520617265206e6f7420617574686f72697a656420746f206d616e61676560008201527f207468697320636f6e7472616374000000000000000000000000000000000000602082015250565b60006111b8602e83610c55565b91506111c38261115c565b604082019050919050565b600060208201905081810360008301526111e7816111ab565b9050919050565b7f596f7520617265206e6f7420617574686f72697a656400000000000000000000600082015250565b6000611224601683610c55565b915061122f826111ee565b602082019050919050565b6000602082019050818103600083015261125381611217565b905091905056fea2646970667358221220f4070db64e4725a7dc4e4f11b82050cd0991d8e69825afcf7763763be1650c7064736f6c63430008180033",
  "linkReferences": {},
  "deployedLinkReferences": {}
}